{
  "contractName": "SimpleStorage",
  "abi": [
    {
      "constant": true,
      "inputs": [],
      "name": "storedData",
      "outputs": [
        {
          "name": "",
          "type": "uint256"
        }
      ],
      "payable": false,
      "stateMutability": "view",
      "type": "function"
    },
    {
      "constant": false,
      "inputs": [
        {
          "name": "x",
          "type": "uint256"
        }
      ],
      "name": "set",
      "outputs": [],
      "payable": false,
      "stateMutability": "nonpayable",
      "type": "function"
    }
  ],
  "bytecode": "0x608060405234801561001057600080fd5b5060ba8061001f6000396000f3fe6080604052348015600f57600080fd5b506004361060325760003560e01c80632a1afcd914603757806360fe47b1146053575b600080fd5b603d607e565b6040518082815260200191505060405180910390f35b607c60048036036020811015606757600080fd5b81019080803590602001909291905050506084565b005b60005481565b806000819055505056fea165627a7a723058209e191611604a9fe90bca2a3464deff33ff9be4ed8f4ee46f94346b102daed6100029",
  "source": "pragma solidity >0.4.21 <0.6.5;\n\ncontract SimpleStorage {\n\n\tuint public storedData;\n\n\tfunction set(uint x) public {\n\t\tstoredData = x;\n\t}\n}",
  "sourcePath": "/Users/mac/SimpleStorageDapp/contracts/SimpleStorage.sol",
  "compiler": {
    "name": "solc",
    "version": "0.5.8+commit.23d335f2.Emscripten.clang"
  },
  "schemaVersion": "3.0.11",
  "updatedAt": "2020-02-18T13:52:02.213Z",
  "devdoc": {
    "methods": {}
  },
  "userdoc": {
    "methods": {}
  }
}